:020000023000CC
:10E000000D9472F00D949BF00D949BF00D949BF089
:10E010000D949BF00D949BF00D949BF00D949BF050
:10E020000D949BF00D949BF00D949BF00D949BF040
:10E030000D949BF00D949BF00D949BF00D949BF030
:10E040000D949BF00D949BF00D949BF00D949BF020
:10E050000D949BF00D949BF00D949BF00D949BF010
:10E060000D949BF00D949BF00D949BF00D949BF000
:10E070000D949BF00D949BF00D949BF00D949BF0F0
:10E080000D949BF00D949BF00D949BF00D949BF0E0
:10E090000D949BF00D949BF00D949BF00D949BF0D0
:10E0A0000D949BF00D949BF00D949BF00D949BF0C0
:10E0B0000D949BF00D949BF00D949BF00D949BF0B0
:10E0C0000D949BF00D949BF00D949BF00D949BF0A0
:10E0D0000D949BF00D949BF00D949BF00D949BF090
:10E0E0000D949BF011241FBECFEFD1E2DEBFCDBF58
:10E0F00001E00CBF12E0A0E0B2E0EEEEFFEE03E0C4
:10E100000BBF02C007900D92A835B107D9F722E0E6
:10E11000A8E5B2E001C01D92A836B207E1F70F945E
:10E120000EF20D94F5F701E20EBF0FEE0DBF1124B4
:10E130001FBE0D940EF20D9400F0209166023091F6
:10E1400067022115310561F48093C6008091C000FB
:10E1500086FFFCCF8091C00080648093C00008954A
:10E160002230310559F48093D6008091D00086FF8B
:10E17000FCCF8091D00080648093D000089520E08F
:10E1800030E02817390749F0EFECF7E03197F1F765
:10E1900000C000002F5F3F4FF4CF0895E0ECF0E0A7
:10E1A00080818260808320E12093C40098E1909375
:10E1B000C100E0EDF0E08081826080832093D40094
:10E1C0009093D1000895019719F480E885B90895D6
:10E1D00015B8089581B1806F81B982B1806F82B91D
:10E1E0006D9A75989D9AA598E1E0F1E0808188622A
:10E1F0008083E2E0F1E080818862808308958F98D7
:10E2000008958F9A0895CF93DF93C82FD62F662352
:10E2100011F05D9A01C05D98C7FF02C0A39A01C0CA
:10E22000A39880910201C6FF02C0806801C08F7769
:10E2300080930201C5FF02C0A49A01C0A498C4FF44
:10E2400002C08D9A01C08D9800C00F9401F182E048
:10E250008A95F1F700C00F94FFF0C3FF02C0A39AA4
:10E2600001C0A39880910201C2FF02C0806801C072
:10E270008F7780930201C1FF02C0A49A01C0A498C5
:10E28000C0FF02C08D9A01C08D9800C00F9401F1AB
:10E2900092E09A95F1F700C00F94FFF0A39A809155
:10E2A0000201806880930201A49A8D9AD11108C05E
:10E2B000C43030F48FE999E10197F1F700C003C051
:10E2C00095ED9A95F1F70000DF91CF91089560E008
:10E2D0000D9403F180580D9467F181E00D9467F17E
:10E2E00082E00D9467F161E00D9403F1CF93DF9329
:10E2F000EC018991882319F00F9473F1FACFDF9123
:10E30000CF910895CF93DF93FC018491EF01219683
:10E31000882321F00F9473F1FE01F7CFDF91CF91A5
:10E320000895879A559A9B9AE1E0F1E08081806890
:10E3300080839C9A859A0F94FFF05D98A39AE2E0FF
:10E34000F1E0808180688083A49A8D9A8FE59AEEAF
:10E350000197F1F700C00000A39880818F77808338
:10E3600000C00F9401F192E09A95F1F700C00F946C
:10E37000FFF08FE090E40197F1F700C000000F94E8
:10E3800001F192E09A95F1F700C00F94FFF08FE849
:10E3900091E00197F1F700C000000F9401F192E0C5
:10E3A0009A95F1F700C00F94FFF085ED8A95F1F78B
:10E3B00000008D9800C00F9401F192E09A95F1F75A
:10E3C00000C00F94FFF085ED8A95F1F700008D985D
:10E3D00000C00F9401F192E09A95F1F700C00F94FC
:10E3E000FFF082E08A95F1F700C0A39A00C00F9475
:10E3F00001F192E09A95F1F700C00F94FFF085EDDE
:10E400008A95F1F7000088E00F9467F10F946DF1A1
:10E4100086E00F9467F18CE00D9467F1CF93DF9362
:10E42000CDB7DEB7CD52D1400FB6F894DEBF0FBEE8
:10E43000CDBF94B7F894A89514BE80916000886110
:10E440008093600010926000789493FFA6C0809142
:10E45000FC1F9091FD1FA091FE1FB091FF1F8A3AF3
:10E460009545AA4AB54509F086C18091F41F90915F
:10E47000F51FA091F61FB091F71F6C017D0153E0CD
:10E4800011E005E02091F81F3091F91F21153105A9
:10E4900009F471C14091FB1F40FF09C0F601E092F1
:10E4A0005B0050935700E89507B600FCFDCF46018E
:10E4B00057016FEF961AA60AB60A41FF5AC0447078
:10E4C0002091F81F3091F91F2115310539F4F6011B
:10E4D000E0925B0000935700E89543C088159905CA
:10E4E000AA05BB05A0F74090F01F5090F11F609067
:10E4F000F21F7090F31F442329F06BBEF201679165
:10E50000769106C0E091F01FF091F11F608171815A
:10E510000B01FC01A0935B0010935700E8951124B8
:10E520000296A11DB11D1201230172E0270E311CBC
:10E53000411C511C2092F01F3092F11F4092F21F9B
:10E540005092F31F2330310538F0225031093093B7
:10E55000F91F2093F81FB4CF1092F91F1092F81FE3
:10E56000AFCF07B600FCFDCFE1E1E0935700E8959F
:10E5700011C09F5FAF4FBF4F2130F1E03F0730F038
:10E580003A953093F91F2093F81F04C01092F91F99
:10E590001092F81F7501640175CF109267021092F6
:10E5A0006602279A2F9A8091C00082608093C000F3
:10E5B00080E18093C40088E18093C10000000F9443
:10E5C000EAF080E885B90F94CEF00F9491F10F94A2
:10E5D0006DF180E00F946AF181E40F946AF183E0B9
:10E5E00092E00F9476F185E60F946AF185E192E06E
:10E5F0000F9476F115B8C12CD12C760177EC472E0B
:10E600007BE1572E612C712CE2E0AE2EB12C00E0A4
:10E6100010E08091C00087FF09C08091D00087FF83
:10E620002FC0B0926702A09266022AC08091D000EB
:10E6300087FDF3CF0115110581F705E00A95F1F784
:10E6400000001FEFC11AD10AE10AF10A91E080E04F
:10E6500021E2C2162EE4D206E104F10408F490E0AF
:10E66000092F182FC701B601A30192010F9497F744
:10E67000672B682B692B69F685B1805885B9C9CF9E
:10E680000F5F1F4F21F20130110509F06EC0A0E0AD
:10E69000B0E0212C312CCB5DDE4F19821882C5529F
:10E6A000D140CC5DDE4F1882C452D140912CCE5D5A
:10E6B000DE4F19821882C252D140412C512C3201B6
:10E6C000C12CD12C76012EE131E02C0F3D1F2E5FA5
:10E6D0003F4FC55DDE4F39832883CB52D1404091F7
:10E6E00066025091670280E090E060E00130110521
:10E6F00009F44FC001E012E12AE730E0411551056D
:10E7000029F47091C00077FF08C043C04230510522
:10E7100021F47091D00077FDF3C301501109210954
:10E72000310961F72BBFF801279136912F3F3F4FF9
:10E7300009F3EE27FF270994DDCF892D0F949DF073
:10E74000CC5DDE4F0881C452D1400F5FCC5DDE4FFF
:10E750000883C452D14085B1805885B900E010E0EB
:10E76000A1E0B0E0882009F4BACF27982F9884E67A
:10E7700090E00F94BFF000008091C0008D7F8093E7
:10E78000C00081E180935700E895EE27FF270994A8
:10E79000FFCF7091C600633009F120F4613079F049
:10E7A00040F015C0653051F1E8F0663009F448C01A
:10E7B0004AC07B3109F497C300E010E097CF972659
:10E7C000CC5DDE4F7883C452D14062E0F5CF872F15
:10E7D00090E0982F8827972663E0EECF872B972627
:10E7E00064E0EACF7E3009F082C39726CE5DDE4F2B
:10E7F00019821882C252D14065E0DECFCE5DDE4F75
:10E8000028813981C252D1402F5F3F4FE1E0F0E0D3
:10E81000EC0FFD1FCE5DDE4F08811981C252D14041
:10E82000E00FF11F708397262817390709F061C39D
:10E83000CE5DDE4F99838883C252D14066E0BCCF63
:10E84000791155C303C0673009F0B6CFAB2B81F403
:10E850000F946DF184E10F946AF189E192E00F94D5
:10E8600076F18DE20F946AF18DE292E00F9476F1E9
:10E870008091620290916302A0916402B09165025E
:10E88000892B8A2B8B2BA9F5CB5DDE4F0881198153
:10E89000C552D1400F5F1F4FCB5DDE4F19830883F8
:10E8A000C552D1400B30110520F11FEF211A310A5A
:10E8B00026E02216310410F0212C312C8BE50F9428
:10E8C0006AF181E492E00F9476F134E0231631048A
:10E8D00018F48CE5820D02C082E682190F946AF169
:10E8E0008AE20F9473F1CB5DDE4F19821882C55214
:10E8F000D1408091620290916302A0916402B09134
:10E900006502892B8A2B8B2B09F466C080915802F3
:10E9100090915902009709F45FC0019739F488E596
:10E920000F946AF188E492E00F9476F18091580296
:10E9300090915902029739F487E50F946AF18FE4B8
:10E9400092E00F9476F120915E0230915F02409147
:10E95000600250916102A4E6B0E00F94B9F72091F3
:10E9600062023091630240916402509165020F94FB
:10E9700097F7C90140E250E260E270E0C25EDE4F0C
:10E98000488359836A837B83CE51D140C55DDE4F76
:10E99000E881F981CB52D1400EE111E00C0F1D1F2F
:10E9A0000150110940E22AE030E0181619063CF443
:10E9B000B9010F9483F7805D8083CB0101C0408350
:10E9C0003197E017F10789F7CE01825E9E4F0F94D1
:10E9D00076F185E20F9473F12981243109F4C5C1E0
:10E9E00098F5263009F4D9C000F5223009F48AC020
:10E9F000233009F477C0213009F038C21A8288E048
:10EA00008B8381E48C8386E58D8382E58E8389E424
:10EA10008F8383E5888780E589878FE58A8782E30E
:10EA20008B87812C0BE010E026C2213109F467C0EE
:10EA300020F4203109F466C019C2223109F4A4C0BF
:10EA4000233109F4BCC012C2293109F48BC048F447
:10EA5000263109F48AC108F4B2C0283109F46DC026
:10EA600005C22B3109F451C008F45AC02D3179F098
:10EA7000213709F0FBC18A81809362028B818093E8
:10EA800063028C8180936402109265026CC19D8147
:10EA9000903339F48F818823B1F08130B1F081E077
:10EAA00017C0892F807599F0903521F489E0E0E056
:10EAB000F0E005C0983559F4E3E0F0E089E0809398
:10EAC0005700849105C08EE103C088E901C080E051
:10EAD0001A821B829C831D828E831F82812C07E0F9
:10EAE00010E0C9C1EA81E059E33028F4F0E0E050D9
:10EAF000FE4F808101C080E01A828B8341C0882450
:10EB0000839401C0812C1A82B4C18D81882321F0A5
:10EB1000813021F081E024C08EE122C088E920C04C
:10EB20001A82E1E0F0E089E08093570084918B83C2
:10EB30001C82812C04E010E09EC18B81803551F451
:10EB40008C81883019F4E2E0F0E006C089E0E0E072
:10EB5000F0E003C0E3E0F0E089E0809357008491A7
:10EB60001A82E5CF8D81836C99E0E1E0F0E0082E18
:10EB700090935700E89507B600FCFDCF1A821B82E0
:10EB8000812C03E010E077C180EC8A83812C02E0C5
:10EB900010E0412C512C32016EC18A81CB80D12CE6
:10EBA000E12CF12C7601DD24CC24F82A8D81C82AB1
:10EBB0008C81D82ACC0CDD1CEE1CFF1CD4C00A8131
:10EBC00010E0102F00278B81082B233109F098C00B
:10EBD0008091620290916302A0916402B0916502FB
:10EBE000892B8A2B8B2B09F440C0C114D104E1047A
:10EBF000F10491F4C801A0E0B0E080935E0290932C
:10EC00005F02A0936002B093610281E090E0909374
:10EC100059028093580221C080915A0290915B0260
:10EC2000A0915C02B0915D02C816D906EA06FB0607
:10EC3000A1F080915E0290915F02A0916002B0917C
:10EC40006102800F911FA11DB11D80935E02909300
:10EC50005F02A0936002B0936102C0925A02D09208
:10EC60005B02E0925C02F0925D024114F0EE5F06FE
:10EC7000F3E06F06710470F483E0F20160925B00D0
:10EC800080935700E89507B600FCFDCF2FEF521A8E
:10EC9000620A720AC11430EED30633E0E306F104CF
:10ECA00008F061C08B85B701A601DE011B9621E04B
:10ECB0001296FD013197308190E0932B0C01FA01FF
:10ECC00060935B0020935700E89511244E5F5F4FDF
:10ECD0006F4F7F4F0250110911F08C91E9CF85E001
:10ECE000F601E0925B0080935700E89507B600FCC0
:10ECF000FDCF81E180935700E8956A017B0133C025
:10ED0000B701A6017695679557954795C95DDE4F82
:10ED1000488359836A837B83C752D1404E015BE0AD
:10ED2000850E911CA12CB12CA016B10689F0D4013E
:10ED30006D914D01C95DDE4F88819981C752D140E7
:10ED40008A0D9B1D0F94E7F7BFEFAB1ABB0AECCF00
:10ED5000C501A0E0B0E0880F991FAA1FBB1FC80E15
:10ED6000D91EEA1EFB1E1A8283C08A8190E0982F6A
:10ED700088273B81832B8C010D5F1F4F1A82243122
:10ED800009F049C0409162025091630260916402AF
:10ED900070916502452B462B472B51F1AC0160E089
:10EDA00070E0C114D104E104F10471F4209158021F
:10EDB000309159022130310539F422E030E03093AE
:10EDC0005902209358020CC080905E0290905F021E
:10EDD000A0906002B0906102480D591D6A1D7B1D14
:10EDE00040935E0250935F026093600270936102F1
:10EDF000DE011396EBBEF601279136912C93129605
:10EE0000FD0131973083E2E0CE0ED11CE11CF11CF4
:10EE1000029781F728C0FE0133969C01B701A60135
:10EE200041BD852E962EA72EBB2482BC4F5F5F4F1F
:10EE30006F4F7F4FF89AA0B5A1932150310981F708
:10EE4000AC014150510960E070E04F5F5F4F6F4F80
:10EE50007F4FC40ED51EE61EF71EA3E0B0E0AC0F38
:10EE6000BD1FA80FB91F1C92812C05C080EC8A839E
:10EE7000812C02E010E08BE10F949DF0CC5DDE4F21
:10EE80008881C452D1400F949DF0812F0F949DF042
:10EE9000802F0F949DF085E1CC5DDE4F9880C452A9
:10EEA000D140982690268EE00F949DF091269E01E9
:10EEB0002F5F3F4F5901020F131FA016B10609F42F
:10EEC0003CCCD5019D915D01892FC35DDE4F9883B8
:10EED000CD52D1400F949DF0C35DDE4F9881CD524D
:10EEE000D1409926EACF2BE1922E61E065CC60E01B
:10EEF00063CCCE5DDE4F39832883C252D1405CCCD7
:10EF00007091D60048CC97FB072E16F4009407D0DA
:10EF100077FD09D00F94C4F707FC05D03EF4909517
:10EF200081959F4F0895709561957F4F0895A1E257
:10EF30001A2EAA1BBB1BFD010DC0AA1FBB1FEE1F73
:10EF4000FF1FA217B307E407F50720F0A21BB30BBE
:10EF5000E40BF50B661F771F881F991F1A9469F73A
:10EF600060957095809590959B01AC01BD01CF0196
:10EF700008950F94D8F7A59F900DB49F900DA49F6E
:10EF8000800D911D11240895AA1BBB1B51E107C0E0
:10EF9000AA1FBB1FA617B70710F0A61BB70B881F29
:10EFA000991F5A95A9F780959095BC01CD010895B8
:10EFB000A29FB001B39FC001A39F700D811D1124BA
:10EFC000911DB29F700D811D1124911D0895262F52
:10EFD000F999FECF1FBA92BD81BD20BD0FB6F8943E
:0EEFE000FA9AF99A0FBE01960895F894FFCFA1
:10EFEE000F020A556C74694D616368696E65204540
:10EFFE00696E7379002E2E2E0020446F206E6F7472
:10F00E0020646973636F6E6E6563742100205570A2
:10F01E0067726164696E67206669726D7761726589
:10F02E00007C202020207C00777269746520007699
:08F03E0065726966792000008B
:040000033000E000E9
:00000001FF
