:020000023000CC
:10E000000D948BF10D94B4F10D94B4F10D94B4F121
:10E010000D94B4F10D94B4F10D94B4F10D94B4F1E8
:10E020000D94B4F10D94B4F10D94B4F10D94B4F1D8
:10E030000D94B4F10D94B4F10D94B4F10D94B4F1C8
:10E040000D94B4F10D94B4F10D94B4F10D94B4F1B8
:10E050000D94B4F10D94B4F10D94B4F10D94B4F1A8
:10E060000D94B4F10D94B4F10D94B4F10D94B4F198
:10E070000D94B4F10D94B4F10D94B4F10D94B4F188
:10E080000D94B4F10D94B4F10D94B4F10D94B4F178
:10E090000D94B4F10D94B4F10D94B4F10D94B4F168
:10E0A0000D94B4F10D94B4F10D94B4F10D94B4F158
:10E0B0000D94B4F10D94B4F10D94B4F10D94B4F148
:10E0C0000D94B4F10D94B4F10D94B4F10D94B4F138
:10E0D0000D94B4F10D94B4F10D94B4F10D94B4F128
:10E0E0000D94B4F12A00593D506F727420626C692E
:10E0F0006E6B00563D73686F7720696E746572723F
:10E1000075707420566563746F727300523D447568
:10E110006D702052414D00513D51756974004C3D68
:10E120004C69737420492F4F20506F7274730048EC
:10E130003D48656C7000463D44756D7020464C410D
:10E14000534800453D44756D7020454550524F4D34
:10E1500000423D426C696E6B204C454400403D4599
:10E160004550524F4D2074657374003F3D435055E8
:10E1700020737461747300303D5A65726F2061645E
:10E18000647200504F5254004545206572722063FE
:10E190006E743D0052656164696E672045450057A5
:10E1A00072697474696E672045450020004D75736F
:10E1B000742062652061206C657474657200506F14
:10E1C0007274206E6F7420737570706F72746564F2
:10E1D000005768617420706F72743A006A6D702025
:10E1E00000726A6D702020006E6F20766563746F18
:10E1F00072005623202020414444522020206F707A
:10E2000020636F64652020202020696E737472750E
:10E210006374696F6E2061646472202020496E749B
:10E2200065727275707400342E392E3200312E38BA
:10E230002E3073766E004D617920333120323031CB
:10E2400038004C6F636B20667573652020203D207D
:10E25000004578742066757365202020203D2000DD
:10E260004869676820667573652020203D20004C52
:10E270006F772066757365202020203D2000435075
:10E28000552049442020202020203D2000474343A2
:10E290002056657273696F6E203D200041565220F2
:10E2A0004C696243205665723D20005F5F415652C3
:10E2B0005F415243485F5F3D2000435055205479F1
:10E2C0007065202020203D2000436F6D70696C65D3
:10E2D00064206F6E203D20004875683F00426F6FDC
:10E2E000746C6F616465723E0041726475696E6F33
:10E2F000206578706C6F7265722073746B35303086
:10E300005632206279204D4C530041546D6567614F
:10E3100032353630000011241FBECFEFD1E2DEBF10
:10E32000CDBF01E00CBF12E0A0E0B2E0E2E9F7EF00
:10E3300003E00BBF02C007900D92A430B107D9F7DC
:10E3400022E0A4E0B2E001C01D92A231B207E1F7E1
:10E350000F94FCF20D94C7FB01E20EBF0FEF0DBF4F
:10E3600011241FBE0D94FCF20D9400F08093C600A2
:10E370008091C00086FFFCCF8091C00080648093B4
:10E38000C000089520E030E02817390749F0EFEC8D
:10E39000F7E03197F1F700C000002F5F3F4FF4CF57
:10E3A0000895CF92DF92EF92FF92CF93DF93C62F23
:10E3B0006C01990FEE08FF08B701A6014C0F511D23
:10E3C000611D711D6BBFFA01D791DD2319F08D2FEF
:10E3D0000F94B6F1CF5FD111EFCFDF91CF91FF90C6
:10E3E000EF90DF90CF9008958DE00F94B6F18AE022
:10E3F0000D94B6F10F94D1F10D94F4F1CF93DF9316
:10E40000EC018991882319F00F94B6F1FACFDF91CE
:10E41000CF910895CF93C82F982F92959F7080E346
:10E42000890F8A3310F087E3890F0F94B6F1CF700C
:10E4300080E38C0F8A3310F087E38C0FCF910D941B
:10E44000B6F10F931F93CF93DF93EC018B018536C9
:10E4500091051CF4633071054CF0CE0164E670E068
:10E460000F9467FB80E3860F0F94B6F1CB30D10594
:10E470001CF4023011056CF0CE0164E670E00F94DC
:10E4800067FB6AE070E00F9467FB80E3860F0F94F0
:10E49000B6F1CE016AE070E00F9467FB805DDF911A
:10E4A000CF911F910F910D94B6F18091C00087FF1D
:10E4B000FCCF8091C6000895CF93C82F60E083E819
:10E4C00091EE0F94D1F18C2F0F94B6F1CF910D9462
:10E4D000F4F12F923F924F925F926F927F928F92C0
:10E4E0009F92AF92BF92CF92DF92EF92FF920F93E3
:10E4F0001F93CF93DF93CDB7DEB763970FB6F89432
:10E50000DEBF0FBECDBF8B8B6A017B0100E110E047
:10E51000CE0101964C018EE2382E90E1292E280C76
:10E5200091E0C916D104E906F10418F08E2D0F947C
:10E530000AF28D2D0F940AF28C2D0F940AF280E2CC
:10E540000F94B6F18DE20F94B6F180E20F94B6F11C
:10E550001982540126013701EB89E13051F028F08E
:10E56000E23059F4F201108108C06BBEF20117913C
:10E5700004C0C2010F94B1FB182F812F0F940AF22F
:10E5800080E20F94B6F180EE810FF5018F3510F423
:10E59000108301C03082FFEF4F1A5F0A6F0A7F0AB3
:10E5A0008FEFA81AB80A2A10D7CF90E1C90ED11C54
:10E5B000E11CF11C198AC4010F94FEF10F94F4F1CF
:10E5C000015009F0ADCF63960FB6F894DEBF0FBED1
:10E5D000CDBFDF91CF911F910F91FF90EF90DF9012
:10E5E000CF90BF90AF909F908F907F906F905F90F3
:10E5F0004F903F902F900895CF93DF93CDB7DEB724
:10E60000CE52D1400FB6F894DEBF0FBECDBF01E2AF
:10E610000EBF0FEF0DBF94B7F894A89514BE80916C
:10E62000600088618093600010926000789493FF8E
:10E6300005C0E0910402F09105021995279A2F9ADE
:10E640008091C00082608093C00080E18093C4000C
:10E6500088E18093C1000000C12CD12C760137ECF9
:10E66000832E3BE1932EA12CB12C00E010E0809191
:10E67000C00087FF04C0F8013196B9F326C0011528
:10E680001105C9F725E02A95F1F700003FEFC31AFD
:10E69000D30AE30AF30A91E080E041E2C4164EE4B3
:10E6A000D406E104F10408F490E0092F182FC70103
:10E6B000B601A50194010F947BFB672B682B692B96
:10E6C000B1F685B1805885B9D2CFE130F10511F0AE
:10E6D0000D9445FBC75DDE4F19821882C952D140A7
:10E6E000812C912CCA5DDE4F1882C652D14010E0B9
:10E6F000212C312CCE5DDE4F188219821A821B82AA
:10E70000C252D140C12CD12C760180E090E040E093
:10E710003197E1F04424439422E1522E2AE7622EFD
:10E72000712C2091C00027FD11C051E0451A5108FD
:10E7300061087108B1F76BBEF201279136912F3F46
:10E740003F4F41F3EE27FF270994E4CF5091C600D5
:10E75000C75DDE4F28813981C952D1402F5F3F4FBD
:10E76000C75DDE4F39832883C952D140513209F049
:10E7700027C52A30310508F071C53FEF831A930A87
:10E7800063E08616910409F06BC505E010E089E1AD
:10E79000A82EB12C81E20F94B6F171E0A71AB1084E
:10E7A000C9F70F94F4F10150110989F710920E0284
:10E7B00010920F02109210021092110210920A028F
:10E7C00010920B0210920C0210920D02109206028F
:10E7D00010920702109208021092090260E089EE7E
:10E7E00092EE0F94FAF11FEF60E08DED92EE0F9430
:10E7F000D1F10F9455F2082F803608F00F750032D2
:10E8000030F0802F0F94B6F180E20F94B6F1063409
:10E8100009F4D7C108F09BC0003409F40CC108F01A
:10E820008FC0003309F4F1C00F3309F0C3C462E0B4
:10E830008BE691EE0F94FAF160E089EE92EE0F9480
:10E84000FAF160E089EC92EE0F94D1F160E086E39A
:10E8500092EE0F94FAF160E08AEB92EE0F94D1F110
:10E8600060E08AE093EE0F94FAF160E08BEA92EEBA
:10E870000F94D1F186E30F94B6F10F94F4F160E0B8
:10E880008DE892EE0F94D1F160E087E292EE0F9462
:10E89000FAF160E08CE992EE0F94D1F160E08DE244
:10E8A00092EE0F94FAF160E08EE792EE0F94D1F1C0
:10E8B0008EE10F940AF288E90F940AF281E00F9436
:10E8C0000AF20F94F4F160E08FE692EE0F94D1F12A
:10E8D00029E0E0E0F0E02093570084910F940AF2E1
:10E8E0000F94F4F160E080E692EE0F94D1F129E00C
:10E8F000E3E0F0E02093570084910F940AF20F9424
:10E90000F4F160E081E592EE0F94D1F1E2E0F0E005
:10E9100039E03093570084910F940AF20F94F4F188
:10E9200060E082E492EE0F94D1F1E1E0F0E049E0A2
:10E930004093570084910F940AF20F94F4F154CF4E
:10E94000023409F4FAC0053409F411C133C40135A5
:10E9500009F49BC168F5083409F457C10C3409F077
:10E9600029C462E08EE191EE0F94FAF181E40F94F4
:10E970005CF282E40F945CF283E40F945CF284E432
:10E980000F945CF285E40F945CF286E40F945CF2E1
:10E9900087E40F945CF288E40F945CF28AE40F94AD
:10E9A0005CF28BE40F945CF28CE40F945CF21CCF6D
:10E9B000063509F473C1093509F402C3023509F0BB
:10E9C000F9C362E08CE091EE0F94FAF140910E02EF
:10E9D00050910F02609110027091110282E00F9429
:10E9E00069F280910E0290910F02A0911002B091F5
:10E9F00011029F5FAF4FBF4F80930E0290930F02A3
:10EA0000A0931002B0931102EFCE62E087E791EE7F
:10EA10000F94FAF110920A0210920B0210920C025B
:10EA200010920D0210920E0210920F02109210021C
:10EA3000109211025EC062E08DE591EE0F94FAF142
:10EA400060E08FE991EE0F94FAF10F94F4F1A12CAC
:10EA5000B12CC50187519D41092E000CAA0BBB0B9F
:10EA6000ABBFFC0107910A32B9F0A11462E0B6060F
:10EA700099F0602FC5010F94B9FB011106C060E049
:10EA80008BEA91EE0F94D1F103C0802F0F94B6F171
:10EA90005FEFA51AB50ADDCF0F94F4F10F94F4F1EE
:10EAA00060E084E991EE0F94FAF10F94F4F1812C77
:10EAB000912CA12CB12CC50187519D41092E000C30
:10EAC000AA0BBB0BABBFFC0107910A32D9F40F9420
:10EAD000F4F10F94F4F160E088E891EE0F94D1F135
:10EAE00061E070E0C4010F9421F20F94F4F10F94EF
:10EAF000F4F110920602109207021092080210928E
:10EB0000090272CEA11492E0B90609F3C5010F946F
:10EB1000B1FB782E811106C060E08BEA91EE0F9474
:10EB2000D1F102C00F94B6F1701619F07FEF871A79
:10EB3000970A8FEFA81AB80ABECF62E081E591EE7E
:10EB40000F94FAF1279A2F9A8091C00087FD0CC08C
:10EB50002F9884E690E00F94C2F12F9A84E690E01B
:10EB60000F94C2F1F1CF12B80F9455F23DCE62E08E
:10EB700083E491EE0F94FAF140910602509107025E
:10EB8000609108027091090281E00F9469F280910E
:10EB9000060290910702A0910802B09109029F5FBE
:10EBA000AF4FBF4F8093060290930702A0930802D5
:10EBB000B093090281159041A105B10508F414CE66
:10EBC00098CF62E086E391EE0F94FAF140910A0249
:10EBD00050910B0260910C0270910D0280E00F9435
:10EBE00069F280910A0290910B02A0910C02B091FF
:10EBF0000D029F5FAF4FBF4F80930A0290930B02AD
:10EC0000A0930C02B0930D02EFCD62E08FE291EE83
:10EC10000F94FAF160E087E791EE0F94FAF160E06B
:10EC20008BE691EE0F94FAF160E08DE591EE0F9492
:10EC3000FAF160E081E591EE0F94FAF160E083E48F
:10EC400091EE0F94FAF160E086E391EE0F94FAF101
:10EC500060E08FE291EE0F94FAF160E08EE191EEC8
:10EC60000F94FAF160E087E191EE0F94FAF160E021
:10EC70008CE091EE0F94FAF160E083EF90EE0F9448
:10EC8000FAF160E086EE90EE98C262E087E191EEE4
:10EC90000F94FAF1812C912C01E0F5C262E083EF30
:10ECA00090EE0F94FAF160E08AE093EE0F94FAF19F
:10ECB00060E082EF91EE0F94FAF1C95DDE4F1982A8
:10ECC0001882C752D140412C512C3201A30192012C
:10ECD0005695479537952795C25EDE4F2883398331
:10ECE0004A835B83CE51D140C95DDE4F4881598153
:10ECF000C752D1404F5F5F4FC95DDE4F5983488394
:10ED0000C752D14062E070E0CA010F9421F280E264
:10ED10000F94B6F18DE20F94B6F180E20F94B6F144
:10ED200080E00F940AF2C25EDE4F8881CE51D1405E
:10ED30000F940AF280E20F94B6F18DE30F94B6F1CE
:10ED400080E20F94B6F16BBEF201A790D301C2012D
:10ED50000196A11DB11DABBFFC019790D301C2016B
:10ED60000296A11DB11DABBFFC01B790D301C2013A
:10ED70000396A11DB11DABBFFC01079154E0450EE8
:10ED8000511C611C711C492D50E060E070E0762F31
:10ED9000652F542F44274A0D511D611D711D892D6A
:10EDA000C55DDE4F4883CB52D140C45DDE4F5883F2
:10EDB000CC52D140C35DDE4F6883CD52D140C25D9D
:10EDC000DE4F7883CE52D1400F940AF280E20F9446
:10EDD000B6F18A2D0F940AF280E20F94B6F1802FDB
:10EDE0000F940AF280E20F94B6F18B2D0F940AF281
:10EDF00080E20F94B6F1C55DDE4F4881CB52D14021
:10EE0000C45DDE4F5881CC52D140C35DDE4F688176
:10EE1000CD52D140C25DDE4F7881CE52D1404F3FBE
:10EE20008FEF58076105710531F460E088EE91EECF
:10EE30000F94D1F1B8C0DB01CA018827907CAA27C2
:10EE4000BB278115904CA105B10599F54A015B01DD
:10EE5000FFE39F22AA24BB24C25EDE4F88819981F2
:10EE6000AA81BB81CE51D140880D991DAA1DBB1D21
:10EE70009C01AD01220F331F441F551FC25EDE4FA0
:10EE8000288339834A835B83CE51D14060E081EE91
:10EE900091EE0F94D1F1892D0F940AF2882D0F94E1
:10EEA0000AF280E20F94B6F18EE30F94B6F180E09F
:10EEB0006AC04E705E7F662777274C3054496105E3
:10EEC000710509F070C0802F90E0A0E0B0E0BA2F8B
:10EED000A92F982F88278B0D911DA11DB11D4A2D9B
:10EEE000417050E060E070E0BA0155274427480FB8
:10EEF000591F6A1F7B1F8A2D807F90E0A0E0B0E041
:10EF000031E1880F991FAA1FBB1F3A95D1F7840FD3
:10EF1000951FA61FB71F292D2170822E912CA12C81
:10EF2000B12C45E1880C991CAA1CBB1C4A95D1F751
:10EF3000880E991EAA1EBB1EB501A401440F551FC1
:10EF4000661F771FC25EDE4F488359836A837B83C7
:10EF5000CE51D14060E08CED91EE0F94D1F18A2D2D
:10EF60000F940AF2892D0F940AF2882D0F940AF259
:10EF700080E20F94B6F18EE30F94B6F1C05EDE4FDF
:10EF80008881C052D1400F940AF2C15EDE4F888161
:10EF9000CF51D1400F940AF2C25EDE4F8881CE512C
:10EFA000D1400F940AF20F94F4F1C95DDE4F28812D
:10EFB0003981C752D1402933310509F087CE14CCAD
:10EFC00062E086EE90EE0F94FAF160E081ED91EE52
:10EFD0000F94D1F10F9455F2082F0F75802F0F94D5
:10EFE000B6F10F94F4F18FEB800F8A3108F0DEC098
:10EFF000063409F471C098F4033409F441C038F4BC
:10F00000013419F1023409F0CDC014B92BC0043415
:10F0100009F445C0053409F0C5C01DB94FC00A3414
:10F0200009F489C048F4073409F465C0083409F0CC
:10F03000B9C0109301016EC00B3409F48FC00C34B9
:10F0400009F0B0C010930A019CC011B98091C000B2
:10F0500087FD89CD82B1809582B988EC90E00F94CC
:10F06000C2F1F4CF8091C00087FD08C085B18095C2
:10F0700085B988EC90E00F94C2F1F4CF15B874CD47
:10F0800017B98091C00087FD08C088B1809588B904
:10F0900088EC90E00F94C2F1F4CF18B865CD1AB99E
:10F0A0008091C00087FD08C08BB180958BB988EC3A
:10F0B00090E00F94C2F1F4CF1BB856CD8091C00000
:10F0C00087FD08C08EB180958EB988EC90E00F94D2
:10F0D000C2F1F4CF1EB848CD10BB8091C00087FDAF
:10F0E00008C081B3809581BB88EC90E00F94C2F199
:10F0F000F4CF11BA39CD13BB8091C00087FD08C091
:10F1000084B3809584BB88EC90E00F94C2F1F4CF77
:10F1100014BA2ACD8091C00087FD0AC080910201F7
:10F1200080958093020188EC90E00F94C2F1F2CFB9
:10F130001092020119CD109304018091C00087FD47
:10F140000AC08091050180958093050188EC90E0CC
:10F150000F94C2F1F2CF1092050106CD1093070172
:10F160008091C00087FD0AC080910801809580933E
:10F17000080188EC90E00F94C2F1F2CF10920801E0
:10F18000F3CC8091C00087FD0AC080910B0180956F
:10F1900080930B0188EC90E00F94C2F1F2CF1092B3
:10F1A0000B01E2CC60E08EEB91EE07C060E08DEAEF
:10F1B00091EE03C060E088ED92EE0F94FAF114CB6B
:10F1C000433049F120F4413099F050F01BC04530F4
:10F1D00089F138F1463009F050C0812C912C4AC099
:10F1E000812C912C5B3109F464C2E0E0F0E090CA1C
:10F1F000812C912C1527CA5DDE4F5883C652D14011
:10F2000042E0F3CF812C912C852F90E0982F882716
:10F21000152743E0EACF812C912C852B152744E05C
:10F22000E4CF812C912C5E3009F04FC21527212CA0
:10F23000312C43C2812C912C91012F5F3F4FE1E093
:10F24000F0E0EC0FFD1FE20DF31D5083152728178A
:10F25000390709F031C21C0146E0C7CF812C912C3F
:10F260004330D9F208F42BC2453031F308F42DC2F3
:10F27000463029F4511329C205C0812C912C473006
:10F2800009F0B3CF00E02981233109F4DFC068F52C
:10F29000263009F4C9C000F5223009F461C12330D9
:10F2A00009F466C0213009F0A7C11A8288E08B8377
:10F2B00081E48C8386E58D8382E58E8389E48F8368
:10F2C00083E5888780E589878FE58A8782E38B8756
:10F2D000FBE0AF2EB12C95C1213109F456C008F0E6
:10F2E00095C0203109F43CC187C1283109F467C0B9
:10F2F00048F4253109F4AAC008F434C1263109F4D0
:10F3000031C17AC12A3109F44DC008F46DC02B31E6
:10F3100009F43DC02D3109F06FC19D81903339F45E
:10F320008F818823B1F08130B1F081E017C0892F3F
:10F33000807599F0903521F489E0E0E0F0E005C0B7
:10F34000983559F4E3E0F0E089E080935700849128
:10F3500005C08EE103C088E901C080E01A821B82EB
:10F360009C831D828E831F82A7E0AA2EB12C49C1E7
:10F37000EA81E059E33028F4F0E0E050FE4F80816C
:10F3800001C080E01A828B833DC001E0E9C08D811D
:10F39000882321F0813021F081E024C08EE122C059
:10F3A00088E920C01A82E1E0F0E089E0809357000C
:10F3B00084918B831C82E4E0AE2EB12C22C18B8120
:10F3C000803551F48C81883019F4E2E0F0E006C019
:10F3D00089E0E0E0F0E003C0E3E0F0E089E0809362
:10F3E000570084911A82E5CF8D81836C99E0E1E02A
:10F3F000F0E0082E90935700E89507B600FCFDCF8B
:10F400001A821B8273E0A72EB12CFBC080EC8A838A
:10F4100062E0A62EB12CCE5DDE4F188219821A82D0
:10F420001B82C252D140EDC08A81CB80D12CE12C0D
:10F43000F12C7601DD24CC24F82A8D81C82A8C8118
:10F44000D82ACC0CDD1CEE1CFF1C8AC08A8190E0FF
:10F45000982F88273B81832B233109F05FC0CE5D35
:10F46000DE4F288139814A815B81C252D14021150A
:10F47000304E4340510528F523E0CE5DDE4F4881F4
:10F4800059816A817B81C252D140FA0160935B004D
:10F4900020935700E89507B600FCFDCFCE5DDE4F08
:10F4A000288139814A815B81C252D1403F5F4F4FF1
:10F4B0005F4FCE5DDE4F288339834A835B83C25220
:10F4C000D1402B85B701A601DE011B9611E01296F3
:10F4D000FD013197E08130E03E2B0901FA01609394
:10F4E0005B0010935700E89511244E5F5F4F6F4FFC
:10F4F0007F4F029711F02C91EACF85E0F601E09260
:10F500005B0080935700E89507B600FCFDCF81E1D2
:10F5100080935700E8956A017B0122C0FE013B966B
:10F520009C01B701A60141BD452E562E672E7724BA
:10F5300042BC4F5F5F4F6F4F7F4FA191A0BDFA9AC2
:10F54000F99AF999FECF2150310969F70197A0E0A6
:10F55000B0E00196A11DB11DC80ED91EEA1EFB1E0A
:10F560001A824CC08A8190E0982F88273B81832B98
:10F570005C0133E0A30EB11C1A82243199F4DE0140
:10F580001396EBBEF601279136912C931296FD014E
:10F590003197308342E0C40ED11CE11CF11C02976C
:10F5A00081F728C0FE0133969C01B701A60141BD39
:10F5B000452E562E672E772442BC4F5F5F4F6F4F0C
:10F5C0007F4FF89AA0B5A1932150310981F7AC0182
:10F5D0004150510960E070E04F5F5F4F6F4F7F4FC8
:10F5E000C40ED51EE61EF71EA3E0B0E0AC0FBD1F93
:10F5F000A80FB91F1C9205C080EC8A8382E0A82E58
:10F60000B12C8BE10F94B6F1CA5DDE4F8881C652F2
:10F61000D1400F94B6F18B2D0F94B6F18A2D0F9433
:10F62000B6F115E1CA5DDE4F2881C652D1401227DE
:10F630001A258EE00F94B6F11B25AE014F5F5F4F88
:10F640003A01A40EB51E6A147B0441F0D3015D900B
:10F650003D01852D0F94B6F11525F5CF812F0F941F
:10F66000B6F1CA5DDE4F2881C652D1402F5FCA5D18
:10F67000DE4F2883C652D14085B1805885B9E0E07D
:10F68000F0E0002311F40D9485F327982F9884E679
:10F6900090E00F94C2F100008091C0008D7F8093B4
:10F6A000C00081E180935700E895EE27FF27099479
:10F6B000FFCF1BE141E099CD190145E096CD4130E6
:10F6C00009F498CD08F491CD9FCD40E08ECD97FB05
:10F6D000072E16F4009407D077FD09D00F949DFBF8
:10F6E00007FC05D03EF4909581959F4F0895709545
:10F6F00061957F4F0895A1E21A2EAA1BBB1BFD0145
:10F700000DC0AA1FBB1FEE1FFF1FA217B307E40700
:10F71000F50720F0A21BB30BE40BF50B661F771F58
:10F72000881F991F1A9469F7609570958095909538
:10F730009B01AC01BD01CF010895AA1BBB1B51E188
:10F7400007C0AA1FBB1FA617B70710F0A61BB70B51
:10F75000881F991F5A95A9F780959095BC01CD01F6
:10F760000895F999FECF92BD81BDF89A992780B589
:10F770000895262FF999FECF1FBA92BD81BD20BDF5
:10F780000FB6F894FA9AF99A0FBE01960895F89474
:02F79000FFCFA9
:04F792000F020A0058
:040000033000E000E9
:00000001FF
